:020000040800F2
:1000000000000820A19B0008310800083308000800
:10001000350800083708000839080008000000000B
:100020000000000000000000000000003B08000885
:100030003D080008000000003F08000841080008D3
:10004000F19B0008F19B0008F19B0008F19B000860
:10005000F19B0008F19B0008F19B0008F19B000850
:10006000F19B0008F19B0008F19B0008F19B000840
:10007000F19B0008F19B0008F19B0008F19B000830
:10008000F19B0008F19B0008F19B0008F19B000820
:10009000F19B0008F19B0008F19B0008F19B000810
:1000A000F19B0008F19B0008F19B0008F19B000800
:1000B000F19B0008F19B0008F19B0008F19B0008F0
:1000C000F19B0008F19B0008F19B0008F19B0008E0
:1000D000F19B0008F19B0008F19B0008F19B0008D0
:1000E000F19B0008F19B0008F19B0008F19B0008C0
:1000F000F19B0008F19B0008F19B0008F19B0008B0
:10010000F19B0008F19B0008F19B0008F19B00089F
:10011000F19B0008F19B0008F19B0008F19B00088F
:10012000F19B0008F19B0008F19B0008F19B00087F
:10013000F19B0008F19B0008F19B0008F19B00086F
:10014000F19B0008F19B0008F19B0008F19B00085F
:10015000F19B0008F19B0008F19B0008F19B00084F
:10016000F19B0008F19B0008F19B0008F19B00083F
:10017000F19B0008F19B0008F19B000800000000C3
:10018000F19B0008F19B0008F19B0008F19B00081F
:10019000F19B0008F19B0008F19B0008F19B00080F
:1001A000F19B0008F19B0008F19B0008F19B0008FF
:1001B000F19B0008F19B0008F19B0008F19B0008EF
:1001C000F19B0008F19B000800000000F19B000873
:1001D000F19B0008F19B0008F19B0008F19B0008CF
:1001E000F19B0008F19B0008F19B0008F19B0008BF
:0801F000F19B0008F19B0008DF
:1002000010B5054C237833B9044B13B10448AFF350
:1002100000800123237010BDD001002000000000E9
:10022000A8B1000808B5034B1BB103490348AFF35D
:10023000008008BD00000000D4010020A8B1000823
:10024000034613F8012B002AFBD1181A0138704716
:1002500001F0FF01102A2BDB10F0070F08D010F877
:10026000013B013A8B422DD010F0070F42B3F6D17B
:10027000F0B441EA012141EA014122F007047FF094
:1002800000070023F0E80256083C85EA010586EAEB
:10029000010685FA47F5A3FA87F586FA47F6A5FA27
:1002A00087F68EB9EED1F0BC01F0FF0102F0070233
:1002B00032B110F8013B013A83EA010313B1F8D1DE
:1002C0000020704701387047002D06BF35460338BF
:1002D000073815F0010F07D1013015F4807F02BFF8
:1002E000013015F4C03F0130F0BC0138704700BF49
:1002F00053B94AB9002908BF00281CBF4FF0FF318D
:100300004FF0FF3000F074B9ADF1080C6DE904CE88
:1003100000F006F8DDF804E0DDE9022304B07047E0
:100320002DE9F047089D04468E46002B4DD18A42A8
:10033000944669D9B2FA82F252B101FA02F3C2F1DB
:10034000200120FA01F10CFA02FC41EA030E94406C
:100350004FEA1C48210CBEFBF8F61FFA8CF708FB8D
:1003600016E341EA034306FB07F199420AD91CEB65
:10037000030306F1FF3080F01F81994240F21C8197
:10038000023E63445B1AA4B2B3FBF8F008FB1033DF
:1003900044EA034400FB07F7A7420AD91CEB040414
:1003A00000F1FF3380F00A81A74240F207816444E4
:1003B000023840EA0640E41B00261DB1D440002369
:1003C000C5E900433146BDE8F0878B4209D9002DCD
:1003D00000F0EF800026C5E9000130463146BDE857
:1003E000F087B3FA83F6002E4AD18B4202D38242C1
:1003F00000F2F980841A61EB030301209E46002D70
:10040000E0D0C5E9004EDDE702B9FFDEB2FA82F2C4
:10041000002A40F09280A1EB0C014FEA1C471FFA22
:100420008CFE0126200CB1FBF7F307FB131140EA09
:1004300001410EFB03F0884208D91CEB010103F1D6
:10044000FF3802D2884200F2CB804346091AA4B298
:10045000B1FBF7F007FB101144EA01440EFB00FE6C
:10046000A64508D91CEB040400F1FF3102D2A645D1
:1004700000F2BB800846A4EB0E0440EA03409CE770
:10048000C6F12007B34022FA07FC4CEA030C20FA1D
:1004900007F401FA06F31C43F9404FEA1C4900FA3D
:1004A00006F3B1FBF9F8200C1FFA8CFE09FB1811BA
:1004B00040EA014108FB0EF0884202FA06F20BD92D
:1004C0001CEB010108F1FF3A80F08880884240F27D
:1004D0008580A8F102086144091AA4B2B1FBF9F0C1
:1004E00009FB101144EA014100FB0EFE8E4508D9BC
:1004F0001CEB010100F1FF346CD28E456AD9023841
:10050000614440EA0840A0FB0294A1EB0E01A14225
:10051000C846A64656D353D05DB1B3EB080261EB93
:100520000E0101FA07F722FA06F3F1401F43C5E96D
:10053000007100263146BDE8F087C2F12003D840A3
:100540000CFA02FC21FA03F3914001434FEA1C47E5
:100550001FFA8CFEB3FBF7F007FB10360B0C43EAD7
:10056000064300FB0EF69E4204FA02F408D91CEB87
:10057000030300F1FF382FD29E422DD90238634485
:100580009B1B89B2B3FBF7F607FB163341EA034125
:1005900006FB0EF38B4208D91CEB010106F1FF3874
:1005A00016D28B4214D9023E6144C91A46EA00466B
:1005B00038E72E46284605E70646E3E61846F8E6FD
:1005C0004B45A9D2B9EB020864EB0C0E0138A3E746
:1005D0004646EAE7204694E74046D1E7D0467BE727
:1005E000023B614432E7304609E76444023842E79F
:1005F000704700BF2DE9F0418CB0002407940894A7
:1006000009940A940B944B4B1A6B42F004021A6340
:100610001A6B02F004020192019A1A6B42F08002F6
:100620001A631A6B02F080020292029A1A6B42F06D
:1006300001021A631A6B02F001020392039A1A6B09
:1006400042F002021A631A6B02F002020492049A48
:100650001A6B42F008021A631A6B02F00802059244
:10066000059A1A6B42F040021A631B6B03F04003B9
:100670000693069B304E224644F28101304600F03C
:100680009BFD2E4D22464021284600F095FD4FF45B
:10069000005307934FF488130893099407A9284837
:1006A00000F08EFC44F2810307934FF00108CDF86F
:1006B000208009940A9407A9304600F081FC4FF489
:1006C0004073079302270897099403260A96072385
:1006D0000B9307A91B4800F073FC40230793CDF848
:1006E000208009940A9407A9284600F069FC802319
:1006F00007930894099407A9284600F061FC4FF479
:10070000E8530793089709940A960A230B93A5F5D3
:10071000C05507A9284600F053FC4FF40073079317
:100720000894099407A9284600F04AFC0CB0BDE8DB
:10073000F08100BF0038024000040240001802406F
:1007400000080240000C024072B6FEE700B595B00A
:100750003422002107A809F0A9FA00230293039389
:10076000049305930693234B1A6C42F080521A644B
:100770001B6C03F080530093009B1F4B1A6842F4DC
:1007800040421A601B6803F440430193019B01231C
:1007900007934FF4A023089302230D934FF4800294
:1007A0000E9208220F924FF4D87210921193129366
:1007B000139307A800F0BCF8B0B900F003FDA8B986
:1007C0000F23029302230393002304934FF4A053B7
:1007D00005934FF480530693072102A800F034FBE1
:1007E00030B915B05DF804FBFFF7AEFFFFF7ACFFC3
:1007F000FFF7AAFF003802400070004000B583B048
:100800000023019300F042FDFFF7A0FFFFF7F2FE87
:1008100000F07AFD09F0A8F9019B01330193034828
:1008200001F078F807F0D4FBF6E700BFFC010020E8
:10083000FEE7FEE7FEE7FEE7FEE77047704770471A
:1008400008B500F02FFD08BD82B00A4B1A6C42F0CB
:1008500080521A641A6C02F080520092009A5A6C0C
:1008600042F480425A645B6C03F480430193019B21
:1008700002B07047003802400649CB6823F4E063B9
:100880001B041B0C000200F4E0600343024A1A43FD
:10089000CA60704700ED00E00000FA0500B5174B94
:1008A000DB68C3F30223C3F1070CBCF1040F28BFBC
:1008B0004FF0040C03F1040EBEF1060F14D9033BF4
:1008C0004FF0FF3E0EFA0CFC21EA0C0199400EFAA3
:1008D00003F322EA03031943002807DB0901C9B225
:1008E000074B19545DF804FB0023E9E700F00F0003
:1008F0000901C9B2034B1954F4E700BF00ED00E051
:1009000000E400E014ED00E00138B0F1807F0BD28C
:100910004FF0E0235861054AF02182F823100020AF
:10092000986107221A6170470120704700ED00E0CE
:10093000002800F0068270B582B00446036813F008
:10094000010F29D0954B9B6803F00C03042B1AD0A0
:10095000924B9B6803F00C03082B0FD06368B3F530
:10096000803F40D0002B54D18C4B1A6822F4803247
:100970001A601A6822F480221A6039E0874B5B689B
:1009800013F4800FEAD0854B1B6813F4003F03D0AB
:100990006368002B00F0D781236813F0020F74D036
:1009A0007E4B9B6813F00C0F5ED07C4B9B6803F072
:1009B0000C03082B53D0E368002B00F08980774AA2
:1009C000136843F00103136000F078FC0546734B95
:1009D0001B6813F0020F72D100F070FC401B02285C
:1009E000F5D90320B4E16D4A136843F480331360F2
:1009F00063682BB300F062FC0546684B1B6813F478
:100A0000003FC9D100F05AFC401B6428F5D90320EF
:100A10009EE1B3F5A02F09D0604B1A6822F4803212
:100A20001A601A6822F480221A60E1E75B4B1A68A8
:100A300042F480221A601A6842F480321A60D7E7C2
:100A400000F03CFC0546554B1B6813F4003FA3D057
:100A500000F034FC401B6428F5D9032078E14F4BAB
:100A60005B6813F4800FA6D14C4B1B6813F0020F88
:100A700003D0E368012B40F06881484A136823F0F3
:100A8000F803216943EAC1031360236813F0080FD8
:100A900046D0636983B3414A536F43F00103536700
:100AA00000F00CFC05463D4B5B6F13F0020F37D195
:100AB00000F004FC401B0228F5D9032048E1374A26
:100AC000136823F0F803216943EAC1031360DCE7EC
:100AD000324A136823F00103136000F0EFFB054670
:100AE0002E4B1B6813F0020FCFD000F0E7FB401B2A
:100AF0000228F5D903202BE1284A536F23F0010384
:100B0000536700F0DBFB0546244B5B6F13F0020FCD
:100B100006D000F0D3FB401B0228F5D9032017E1D3
:100B2000236813F0040F7DD01C4B1B6C13F0805F07
:100B30001ED11A4B1A6C42F080521A641B6C03F0DF
:100B400080530193019B0125154B1B6813F4807F93
:100B500010D0A368012B25D0002B3BD10F4B1A6F6F
:100B600022F001021A671A6F22F004021A671EE0CF
:100B70000025E9E70A4A136843F48073136000F024
:100B80009DFB0646064B1B6813F4807FE1D100F005
:100B900095FB801B6428F5D90320D9E0003802407A
:100BA00000700040724A136F43F001031367A3689B
:100BB00033B300F083FB06466D4B1B6F13F0020F3F
:100BC0002FD100F07BFB801B41F288339842F3D990
:100BD0000320BDE0052B09D0654B1A6F22F00102FE
:100BE0001A671A6F22F004021A67E0E7604B1A6F67
:100BF00042F004021A671A6F42F001021A67D6E740
:100C000000F05CFB06465A4B1B6F13F0020F08D036
:100C100000F054FB801B41F288339842F3D9032043
:100C200096E0FDB9A369002B00F09180504A9268CC
:100C300002F00C02082A59D0022B19D04C4A136832
:100C400023F08073136000F039FB0446484B1B68A7
:100C500013F0007F48D000F031FB001B0228F5D9CB
:100C6000032075E0424A136C23F080531364D9E7E4
:100C70003F4A136823F08073136000F01FFB0546A2
:100C80003B4B1B6813F0007F06D000F017FB401BA6
:100C90000228F5D903205BE0E369226A1343626A04
:100CA00043EA8213A26A5208013A43EA0243E26A23
:100CB00043EA0263226B43EA02732D4A53601368CE
:100CC00043F08073136000F0F9FA0446284B1B6868
:100CD00013F0007F06D100F0F1FA001B0228F5D9CD
:100CE000032035E0002033E0002031E0204A526844
:100CF000012B2FD002F48003E1698B422CD102F04A
:100D00003F03216A8B4229D1616A47F6C0731340C1
:100D1000B3EB811F24D102F44031A36A5B08013B8D
:100D2000B1EB034F1ED102F07063E16AB3EB016FC8
:100D30001AD102F0E042236BB2EB037F16D1002000
:100D400006E001207047012002E0012000E00020C1
:100D500002B070BD0120FBE70120F9E70120F7E7B1
:100D60000120F5E70120F3E70120F1E70120EFE79B
:100D70000038024008B5314B9B6803F00C03042B8C
:100D800057D0082B57D12D4B5A6802F03F025B68B1
:100D900013F4800F2AD0294B5968C1F3881C4FEAFD
:100DA0004C11B1EB0C006EEB0E0E4FEA8E1343EAC2
:100DB00090638101091A63EB0E03DB0043EA517370
:100DC000C90011EB0C0C43F10003590200234FEA58
:100DD0004C2041EADC51FFF78BFA184B5B68C3F3F8
:100DE000014301335B00B0FBF3F025E0134B59687E
:100DF000C1F3881C4FEA4C11B1EB0C006EEB0E0EE8
:100E00004FEA8E1343EA90638101091A63EB0E03E4
:100E1000DB0043EA5173C90011EB0C0C43F10003F2
:100E2000990200234FEA8C2041EA9C51FFF760FAB7
:100E3000D3E7034800E0034808BD00BF0038024084
:100E400000127A000024F400002800F0A08070B5A1
:100E50000D460446524B1B6803F00F038B420BD226
:100E60004F4A136823F00F030B431360136803F01A
:100E70000F038B4240F08D80236813F0020F17D0D0
:100E800013F0040F04D0474A936843F4E05393608F
:100E9000236813F0080F04D0424A936843F4604378
:100EA0009360404A936823F0F003A1680B4393607A
:100EB000236813F0010F31D06368012B20D0022B7F
:100EC00025D0384A126812F0020F64D035498A687A
:100ED00022F0030213438B6000F0F0F90646314B19
:100EE0009B6803F00C036268B3EB820F16D000F02E
:100EF000E5F9801B41F288339842F0D9032045E0A0
:100F0000284A126812F4003FE0D101203EE0254A51
:100F1000126812F0007FD9D1012037E0204B1B6806
:100F200003F00F03AB420AD91D4A136823F00F03E5
:100F30002B431360136803F00F03AB422DD12368DA
:100F400013F0040F06D0174A936823F4E053E168C6
:100F50000B439360236813F0080F07D0114A93687E
:100F600023F46043216943EAC1039360FFF702FF62
:100F70000C4B9B68C3F303130B4AD35CD8400B4B59
:100F800018600B4B186800F05BF9002070BD012061
:100F900070470120FAE70120F8E70120F6E700BFDB
:100FA000003C024000380240C0B1000808000020A8
:100FB00004000020014B1868704700BF08000020A3
:100FC00000230F2B00F2EF8070B582B061E08568DE
:100FD0005E000324B44025EA0405CC68B4402C43E9
:100FE0008460456825EA02054C68C4F300129A4003
:100FF0002A4342605BE0DC08083450F8246003F0C8
:10100000070295000F22AA4026EA020E0A69AA40AA
:1010100042EA0E0240F824205DE0092200E00022AE
:1010200002FA0EF22A4302345F4D45F824205F4A4B
:1010300094686FEA0C0224EA0C054E6816F4801FCF
:1010400001D04CEA0405594CA560E46802EA0405A5
:101050004E6816F4001F01D04CEA0405534CE560BD
:10106000646802EA04054E6816F4003F01D04CEAB9
:1010700004054E4C6560246822404D6815F4803F9D
:1010800001D04CEA0402494C226001330F2B00F2DC
:10109000888001229A400C6804EA020C32EA0404B7
:1010A000F3D14C6804F00304013C012C8FD94A6849
:1010B00002F00302032A09D0C4685D000322AA409B
:1010C00024EA02048A68AA402243C2604A6802F005
:1010D0000302022A8FD004684FEA430E032202FA69
:1010E0000EF224EA02044A6802F0030202FA0EF247
:1010F000224302604A6812F4403FC6D02C4A546C26
:1011000044F480445464526C02F480420192019A87
:101110009C08A51C244A52F8255003F003024FEA0C
:10112000820E0F2202FA0EF225EA0205214A9042AF
:101130003FF475AF02F58062904222D002F58062E2
:10114000904220D002F5806290421ED002F580626B
:1011500090421CD002F5806290421AD002F5806263
:10116000904218D002F58062904216D002F580625B
:10117000904214D002F5806290423FF44EAF0A22B2
:101180004EE701224CE702224AE7032248E7042205
:1011900046E7052244E7062242E7072240E7082205
:1011A0003EE702B070BD704700380140003C01408E
:1011B00000380240000002400AB181617047090412
:1011C0008161704710B582B01B4B1A6C42F080529F
:1011D0001A641B6C03F080530193019B174A136838
:1011E00043F48033136000F069F80446134B5B68E6
:1011F00013F4803F08D100F061F8001BB0F57A7F4E
:10120000F4D9032002B010BD0C4A136843F4003334
:10121000136000F053F80446084B5B6813F4003F7A
:1012200007D100F04BF8001BB0F57A7FF4D903200A
:10123000E8E70020E6E700BF003802400070004009
:1012400010B504460E4B18784FF47A73B3FBF0F3E5
:101250000C4A1068B0FBF3F0FFF756FB68B90F2C8F
:1012600001D901200AE0002221464FF0FF30FFF7AC
:1012700015FB054B1C60002000E0012010BD00BFE5
:1012800000000020080000200400002008B5032012
:10129000FFF7F2FA0020FFF7D3FFFFF7D5FA00209F
:1012A00008BD0000034A1168034B1B780B44136010
:1012B000704700BFEC01002000000020014B1868BF
:1012C000704700BFEC01002038B50446FFF7F6FF79
:1012D0000546B4F1FF3F02D0044B1B781C44FFF7D6
:1012E000EDFF401BA042FAD338BD00BF0000002034
:1012F000034AD2F8883043F47003C2F8883070474C
:1013000000ED00E070470000F0B585B03D4FAC2225
:101310003A7010237B700024BC700A21F9703A4E99
:10132000FF213170F0217170B470F470374D2A7064
:101330006B70AC700123EB7002F08CFD3A787B7817
:101340001B0443EA0263BA7843EA0223F9780B43A9
:101350001A0202F47F0242EA0162190A01F47F4193
:101360000A4342EA13632A490B60327873781B04FC
:1013700043EA0263B27843EA0223F07803431A0295
:1013800002F47F0242EA0062180A00F47F4002433E
:1013900042EA13631F4A136028786B781B0443EA00
:1013A0000063A87843EA0023ED782B43180200F489
:1013B0007F0040EA05601D0A05F47F45284340EAA6
:1013C0001360154B1860154D154802901548019093
:1013D0000094284604F098FE284604F027FF95F86C
:1013E0002D3013F0040F08D0284604F025FF0E49D5
:1013F0000A4804F0A1FF05B0F0BD084804F03AFF28
:10140000F5E700BFF4010020F8010020F001002002
:10141000340200203802002030020020FC010020AD
:1014200061260008291800080513000800207047ED
:1014300000B583B000230193054B1B781BB10198C5
:1014400003B05DF804FB01A9024800F078FFF6E75D
:101450005C0200209802002030B58DB00C4630258B
:101460002A460021684608F021FC2A4600216846E9
:1014700008F01CFC2246002303E01168E9B10133A7
:1014800012681AB3032B2DD8516803EB43000CAD3F
:1014900005EB800040F8301C518940F82C1C002BD3
:1014A000EBD0581E03EB43010DEB810100EB400034
:1014B00005EB800040F8281CDFE703EB43010CA894
:1014C00000EB8101002041F8280CD8E72389074967
:1014D0004B60C1F808D04C631422054800F0CAFEE6
:1014E000002001E06FF00B000DB030BD6002002065
:1014F0009802002008B50146054801F0C7F9054BE0
:101500001B78012B00D008BD024B00221A70FAE7AD
:1015100024B200085C02002008B5FFF7CFFE08BD2A
:1015200008B5024801F062F8002008BD98020020CA
:1015300008B513460A460146034800F07FFF00B98C
:1015400008BD4FF0FF30FBE79802002008B51346B6
:101550000A460146034800F09AFF00B908BD4FF063
:10156000FF30FBE79802002008B5FFF7A7FE08BD93
:10157000F0B58DB000230793089309930A930B935A
:1015800002683A4B9A4201D00DB0F0BDA3F59043EA
:101590001A6B42F000721A631A6B02F0007200922A
:1015A000009A1A6B42F080621A631A6B02F0806232
:1015B0000192019A1A6B42F000621A631A6B02F0F0
:1015C00000620292029A1A6B42F004021A631A6BCA
:1015D00002F004020392039A1A6B42F001021A63AA
:1015E0001A6B02F001020492049A1A6B42F0020292
:1015F0001A631A6B02F002020592059A1A6B42F006
:1016000040021A631B6B03F040030693069B3223D0
:1016100007930226089603250A950B240B9407A925
:101620001348FFF7CDFC86230793089600270997F8
:101630000A950B9407A90F48FFF7C2FC4FF400531B
:101640000793089609970A950B9407A90A48FFF78C
:10165000B7FC4FF420530793089609970A950B940B
:1016600007A90648FFF7ACFC8EE700BF00800240E8
:10167000000802400000024000040240001802403E
:10168000F0B59BB004466422002101A808F00EFBCF
:10169000274800F0D4F994F82D3013F0040F01D04E
:1016A00001280BDD13F0040F2AD1012828DD831E49
:1016B000032B0DD8DFE803F01E10151A1D4800F0AB
:1016C000A1FD204604F0D6FD204604F017FE17E0E9
:1016D00000252F462B4612E000254FF480470123BA
:1016E0000DE04FF400650027012308E000252F4698
:1016F000012304E04FF400654FF4804701230BB948
:101700001BB0F0BD0B4E01A9304600F0E7FE079577
:10171000069701A9304600F05AFF304600F036FD2A
:10172000204604F089FD204604F0C4FDE8E700BF30
:101730003C020020980200202DE9F04182B00446CE
:10174000314D324B2B6000268DF8006080238DF8E0
:101750000130E1238DF802308DF803608DF80460CC
:101760008DF80560C5F804D04FF40003AB60284B3A
:10177000EB60284B2B614FF4C0636B61284600F08F
:10178000A7FC0746DFF89C8038223146404608F027
:101790008DFA2123C8F800304FF44003C8F8143004
:1017A0001D4801F01DF8062384F82C306B681A7868
:1017B00084F826205A7884F827209A7884F82820FC
:1017C000DA7884F829201A7984F82A205B7984F859
:1017D0002B3040F2DC53A38494F82D3043F00A03FD
:1017E00084F82D300D4D0E49284600F0A2F8284609
:1017F00000F0BEF82FB92046FFF742FF02B0BDE867
:10180000F081FEF7A1FFF9E7980200200080024076
:10181000300100209000002024B200083C0200208B
:101820000C0000206002002010B5044670B1732344
:1018300084F82E30742384F82F30084B6361084BF2
:10184000A3612046FFF778FF002010BD054B40F252
:1018500079120549054808F031FAE8E735880008AB
:1018600059140008D0B10008ECB10008FCB1000820
:1018700010B582B004460E4800F0D6FF88B103468A
:1018800000F1200222600B4A02614FF4C062019213
:101890002268009241220021084605F0A7FF02B00D
:1018A00010BD054B01221A7000232360F7E700BF2B
:1018B00024B20008F51400085C02002030B4A2F144
:1018C0002004002542F8205C22F8185C22F8163C1F
:1018D000056825B10D682C600C60016805E00460A6
:1018E000FAE708891844088109680029F9D1BFF38B
:1018F0004F8F04E00649C1F85C222032203B002BC8
:10190000F8DCBFF34F8FBFF36F8F30BC704700BF61
:1019100000ED00E038B50446FFF78AFD20B105462A
:1019200023692146984700B938BD284605F0C8FF0D
:10193000FAE788B1CA6892B18A689AB10A69A2B115
:101940000A6882604A68C260CA6842618A68026145
:101950000A698261002070474FF0FF3070474FF0F6
:10196000FF3070474FF0FF3070474FF0FF30704747
:1019700070B582B00546002301934468002C49D11C
:10198000836803B1984720232B60002602E06FF0A4
:10199000040601341F2C0DD86B6901AA12212046C0
:1019A00098470028F3DB019B03F01F03A342F0D10B
:1019B0002C60002628681F2825D836BB2B694FF4D9
:1019C000004200219847002833DB6B6901AA0021FF
:1019D0002868984700282FDBAB6998470446019B8D
:1019E00013F4004F11D0AB699847001BB0F5FA7F94
:1019F0000DD86B6901AA0021286898470028EEDA03
:101A00006FF0040601E06FF002067EB903E06FF0AC
:101A10000106FAE70026AB6998470446AB69984788
:101A2000031BB3F5FA6FF9D901236B60304602B09E
:101A300070BD6FF00306F9E76FF00406F6E710B526
:101A400082B0044600230193436901AA0121006882
:101A50009847002839DB636901AA0121206898476B
:101A6000002835DB019B13F0040F34D0636901AA11
:101A7000002120689847002830DB019B13F4805F29
:101A80000CD103F40452B2F5045F2AD013F4005FC2
:101A900029D113F4807F28D004201DE0636901AAB6
:101AA0001F2120689847002821DB019B13F4805FE9
:101AB00020D003F01C03182B1ED0082B1ED0142B93
:101AC00001D0052008E0042006E06FF0040003E0E8
:101AD0006FF0040000E0012002B010BD6FF00400C0
:101AE000FAE70220F8E70320F6E70520F4E76FF0B5
:101AF0000400F1E70620EFE70220EDE70320EBE723
:101B00002DE9F04182B0074600230193D0F86880A8
:101B100008F1120350F82340C56E012611E001A818
:101B2000FFF7A6FE019B4BB32362A36012E04FF4C4
:101B30008C43636015E003F1120257F82240013D27
:101B40009846002D0CBF002306F00103C3B1236AA1
:101B5000002BE4D0002EF4D0BB6D002BE7D10F4B4F
:101B60006360BFF35F8F236843F00043236008F195
:101B70000103032BDFD9A8F10303DCE70026E0E72C
:101B8000FB6EAB4207D03B6803F5805300229A609E
:101B9000C7F86880FD6602B0BDE8F08100460080AD
:101BA0005079137943EA002307480B50D078937893
:101BB0001B0443EA0063507843EA0023127813437E
:101BC000024A8B50704700BF408002404480024070
:101BD00030B4002208E0C468DC6051F80C3043F4F3
:101BE000400341F80C300132032A1FD8C16802EBD0
:101BF00082034FEAC30C01EBC303002441F80C40FD
:101C00005C609C60DC60941D40F8243051F80C400E
:101C100044F4801441F80C40022ADCD8541C04EB34
:101C20008404C56805EBC404DC60D6E70023836246
:101C3000C268036803F580531A6130BC704700B571
:101C40004FF0000E03E00269DA600EF1010EBEF102
:101C5000030F29D801690EEB8E034FEAC30C01EB89
:101C6000C303002241F80C205A609A60DA601A62BD
:101C70005A624FF0004241F80C204FF48C425A60F7
:101C80005A6822F000425A600EF1120240F82230E7
:101C9000BEF1020FD7D801690EF1010202EB8202F8
:101CA00001EBC202DA60D0E70023C36503668366F6
:101CB000C36683650269036803F58053DA605DF8E3
:101CC00004FB0000F0B5856A00EB85039B698C6816
:101CD0001E68002EC0F2AB802E1D00EB8606F66952
:101CE000002E40F0A68026689E605F68524E3E40FF
:101CF00067683E435E600E6816F0010F05D01E68EF
:101D000026F440064F693E431E600E6816F0200F11
:101D100005D01E6826F040660F693E431E600968C4
:101D200011F0040F03D0196841F08001196019689F
:101D300041F080511960BFF35F8F196841F0004195
:101D400019602F4600264FF0010E27E0196821F098
:101D5000804119602EE000EB8C039B69196821F02B
:101D600080511960196800292CDB0CF1040100EB8B
:101D70008101C96931BB0EF1010EA4682168996027
:101D80005F682D4939406768394359600136BFF3B0
:101D90005F8F196841F0004119606746A16851B32F
:101DA000196821F000511960002ACFD0196841F05C
:101DB0008041196007F1010CBCF1030FCBD9A7F1E9
:101DC000030CC8E700EB85039969002204E000EBEF
:101DD0008301896901321D4672450AD2BFF35F8FC4
:101DE0000B6823F000430B606B1C032BEFD9EB1E39
:101DF000EDE70220F0BDAAB11A6842F080421A60F5
:101E00001A6842F000521A60C26B3B1D00EB83035C
:101E1000DA61876272B6036C1E440136066462B6EC
:101E20000020E7E71A6822F080421A60E8E7022003
:101E3000E0E70220DEE700BF00E0FFFF70B50546E7
:101E40000C46026813683B491940237C002B60D183
:101E50004FF40003607C00285DD14FF48000034301
:101E6000A0680343E07F43EA004360690343A07F27
:101E7000002852D14FF400500343207F43EA00333F
:101E8000A0690343207943EA802394F820000028C6
:101E900045D14FF400700343E07B43EAC013606A0E
:101EA000034394F8280043EA00130B4313602B68A4
:101EB0001E680120FFF708FA2B681E6029688A69EE
:101EC00022F0BE021204120CA36C1B0494F84C0006
:101ED00038BB80200343206D034394F8550001284C
:101EE00021D00020034394F8560001281DD0002083
:101EF000034394F85400012819D0002003431343EE
:101F00008B612B689C690120FFF7DEF92B689C61CF
:101F100070BD00239EE70020A1E70020ACE7002071
:101F2000B9E70020D6E70820DCE70420E0E702203C
:101F3000E4E700BF0F8120FF70B505460C4602683C
:101F400002F580539B692B491940237B002B4DD10F
:101F50004FF08063607B43EA4063607F002847D195
:101F60004FF480100343A07B43EA4053606903436E
:101F7000207F43EAC013A07F43EA8013206A034313
:101F800094F8240043EA80030B4302F580529361E6
:101F90002B6803F580539E690120FFF795F92B68A4
:101FA00003F580539E612279A36843EA4263A269E4
:101FB00013432269134394F8252043EAC213A26A0B
:101FC00043EA8203226813432A6843F4000302F5BC
:101FD000805213602B6803F580531C680120FFF7C3
:101FE00073F92B6803F580531C6070BD0023B1E7C3
:101FF0000020B7E7233FDEF870B5A4B00646012500
:102000008DF83C508DF83D5000240D948DF84B40D8
:102010008DF84A508DF848408DF830508DF84C407E
:102020008DF83B4014948DF854401D948DF8784001
:102030001F948DF882408DF880404FF480431093B8
:102040004FF4006311938DF881400BA9FFF7F6FE62
:102050008DF80C508DF80D508DF81D508DF80E50E8
:1020600005948DF81C408DF81E4008948DF824507E
:102070008DF804504FF4803302934FF4800306939D
:102080004FF4005304938DF825500A940094694648
:102090003046FFF751FF24B070BD10B582B0044642
:1020A00000230193036803F580539A6942F4801278
:1020B0009A61036803F580539B6901930120FFF740
:1020C00003F92368019A03F580539A6102B010BDA9
:1020D000002855D030B583B00446D0F88430002BAA
:1020E00032D0284B5A6C42F480425A645B6C03F441
:1020F00080430193019B244B5A6822F400025A60EA
:102100005A68A1680A435A605B68236803F58053E4
:102110001A6842F001021A60FFF7D0F805462368FA
:1021200003F580531B6813F0010F13D0FFF7C6F8B7
:10213000401BB0F5FA7FF2D90423C4F88830E023BD
:10214000C4F88430012019E02323C0F88430FFF75D
:102150000FFAC6E72046FFF74FFF2046FFF738FD8E
:102160002046FFF76CFD626800212046FFF718FD4E
:102170000020C4F888001023C4F8843003B030BDB8
:10218000012070470038024000380140D0F8843008
:10219000102B01D00120704770B504462325C0F8EC
:1021A00084500423C366FFF7ABFC2268136843F036
:1021B0000803136023681E680120FFF785F8236871
:1021C0001E602268136843F00403136023681E68CE
:1021D0000120FFF779F823681E602046FFF75DFFB6
:1021E000236803F580539A6942F400529A61236888
:1021F00003F580539A6942F002029A61C4F8845050
:10220000002070BD38B5D0F88430232B01D00120D8
:1022100038BD0446C0F88430036803F580539A69DA
:1022200022F400529A61036803F580539A6922F000
:1022300002029A610268136823F0040313600368C2
:102240001D680120FFF740F823681D602046FFF756
:1022500024FF2268136823F00803136023681D68B5
:102260000120FFF731F823681D601023C4F8843083
:102270000020CDE7F8B5044631B11546D4F88430D6
:10228000232B09D00120F8BDD0F8883043F001039A
:10229000C0F888300120F6E700222046FFF712FD43
:1022A000002835D1BFF34F8FA36A9A1D54F82260DE
:1022B0000133A362032B01D9043BA362A26A236802
:1022C000063254F8222003F580535A60FEF7F6FFD9
:1022D00007463368002B30DA236803F580525269D1
:1022E00012F4005F1CD1B5F1FF3FF2D0FEF7E6FF1C
:1022F000C01BA84201D8002DEBD1D4F8883043F0A0
:102300000403C4F888304FF0405333600120BAE72B
:10231000D4F8883043F00203C4F888300120B2E7D3
:10232000D4F8882042F00802C4F8882003F58053CE
:102330005B69C4F88C300120A5E70020A3E72DE9F4
:10234000F84F044689B18B46D0F88430232B72D1E4
:10235000D0F85C8008F1120350F82350C36EC3F12B
:10236000040A4FF000094F4638E0D0F8883043F0B7
:102370000103C0F8883001205EE02B6813F4007F71
:1023800002D000232366636666692B6813F4807F9E
:1023900007D02E68C6F30D46043E2B6823674FF026
:1023A0000109AA682A62B3B204F1800104F17C0039
:1023B000FFF784FA236E01332366636E334463664A
:1023C00000232B6208F10103032B01D9A8F10303B9
:1023D00003F1120254F82250013798462B68002B63
:1023E00014DB89F00103574510D27BB12B6813F43D
:1023F000807F03D0AB69A367EB6963672B6813F435
:10240000007FBAD1E36F002BB7D1DBE7E36E1F4447
:10241000E76637B9C4F85C80B9F1000F05D1012037
:102420000AE02046FFF76CFBF4E7E36FCBF80030DF
:102430000020E06700E00120BDE8F88FF8B5054610
:102440001E460068036903F01C03C9028CB244EA0B
:102450000301940104F4F8640C4344F001040461A2
:10246000FEF72CFF074601E02B681C6914F0010FF2
:1024700007D0FEF723FFC01BB0F5803FF4D3012047
:1024800004E02B685B699BB233600020F8BD70B537
:1024900005460668306900F01C00C9028CB244EAA7
:1024A0000001940104F4F8640C4344F003049BB26B
:1024B00073612B681C61FEF701FF064601E02B6883
:1024C0001C6914F0010F07D0FEF7F8FE801BB0F571
:1024D000803FF4D3012000E0002070BD002974D0BB
:1024E00002681268C2F3001281F82820026812689C
:1024F00002F060024A620268126812F4007F0CBFA8
:102500000122002281F8202002681268C2F30042F2
:10251000CA770268126812F4005F0CBF0122002221
:102520008A7702681268C2F300320A77026812687A
:1025300002F400628A610268126802F480424A6111
:102540000268126812F4800F0CBF012200224A7444
:102550000268126812F4000F0CBF012200220A74F4
:1025600002681268C2F3C012CA730268126802F4E9
:1025700060228A6002681268C2F380220A710268CF
:102580009269C2F3400281F854200268926912F005
:10259000800F0CBF0122002281F84C200268926952
:1025A00002F030020A6502689269120C8A640268BD
:1025B0009269C2F3800281F8562002689269C2F3E0
:1025C000C00281F85520002070470120704751B1AA
:1025D00008B5D0F88430102B01D0012008BDFFF7DA
:1025E0002DFC0020FAE701207047000038B50546B1
:1025F00003681C6924F01C04FEF7DCFC104B034448
:10260000104A934204D244F008042B681C6138BD80
:102610000D4B03440D4A934202D844F00C04F4E7F6
:102620000B4B03440B4A9342EFD30B4B03440B4A2F
:10263000934202D844F00404E7E744F01004E4E7CE
:1026400000D3CEFEC0E1E40040F1E9FD3F787D011A
:1026500000796CFC005A6202001F0AFA7FF0FA024D
:1026600070B5044643890E2B1CD90D46C37B1BB99C
:1026700091F830300133C37360688689037813F0B2
:10268000010F0AD0012B12D006221E4907F0D6FAFC
:1026900018B9637B43F008036373082E12D0B6F5B4
:1026A000C16F1FD0204605F00BF9002070BD4378A4
:1026B000002BF2D183785E2BEFD1637B43F01003C4
:1026C0006373EAE795F82D3013F0080FEAD00E2176
:1026D000204605F0AFF80028E4D12946204606F050
:1026E000D1FAE2E795F82D3013F0080FDAD00E2179
:1026F000204605F09FF80028D4D12946204605F051
:10270000A7FED2E798B200082DE9F04105460C4635
:1027100016461F46BDF8180001F05AFE80460E21ED
:10272000204605F082F8E8B96168A1F80C803B68A2
:102730000B60BB888B803368C1F80630B3884B814F
:1027400095F82C30062B05D1AB69214628469847D1
:10275000BDE8F081054B4FF499720549054807F033
:10276000ADFAF1E76FF00100F2E700BF30B2000808
:1027700064B20008FCB1000810B583681C6824B17D
:1027800022681A6014F0030F01D1204610BD044BDB
:102790004FF48C720349044807F090FAF5E700BF44
:1027A000A8B20008D8B20008FCB1000838B5054648
:1027B0000C4611F0030F05D1AB681B682360AB68B2
:1027C0001C6038BD034B4FF4B6720349034807F051
:1027D00075FAF1E7A8B20008FCB20008FCB10008E5
:1027E000836800221A604368033323F0030307E081
:1027F00081680968196081680B6001880B440132A7
:1028000041889142F4DC704710B5002406E0054B86
:1028100053F82400FFF7E4FF0134A4B2082CF6D9E2
:1028200010BD00BFD8B3000810B5044620B15CB19C
:102830002046FFF7A1FF10BD044B4FF49E720449E0
:10284000044807F03BFAF2E72046F4E7A8B2000894
:102850001CB30008FCB1000808B5082805D8074BD0
:1028600053F82000FFF788FF08BD054B40F25712D0
:102870000449054807F022FA0020F5E7D8B300081C
:10288000A8B2000830B30008FCB1000838B50C4607
:10289000054620B1002C18BF002D08D138BD064BCD
:1028A00040F295120549064807F008FAF2E721467A
:1028B0002846FFF77BFFF1E7A8B200081CB3000829
:1028C000FCB1000808B5082806D821B1064B53F81A
:1028D0002000FFF76BFF08BD044B4FF4D57204498D
:1028E000044807F0EBF9F6E7D8B30008A8B20008EF
:1028F00050B30008FCB1000838B50C460546B8B125
:102900002B7D042B18BF072B03D0022B01D0032BE8
:1029100041D1002C42D0B5F86430A34210D3B5F8B1
:102920006630082B13D833B32B6FBBB1002036E0D1
:102930001B4B40F233121B491B4807F0BFF9DFE77E
:102940006B8B43F080036B834FF0FF3027E06B8B82
:1029500043F080036B834FF0FF3020E0EB6E0BB150
:1029600000201CE00E4B40F2551210490E4807F0B3
:10297000A5F9002013E02B6F43B1094B4FF4AC7263
:102980000B49094807F09AF9002008E0EB6E002B8C
:10299000F3D1002003E06FF00A0000E0002038BD12
:1029A000FCB300082CB40008FCB100084CB40008CB
:1029B00088B4000810B5044628B163689B7B012BDE
:1029C00009D1002010BD054B40F29A520449054838
:1029D00007F074F9F1E70120F4E700BFFCB3000849
:1029E000BCB40008FCB1000838B514460D4689B1E6
:1029F0006B6803F11402A40004F0040414341C44B2
:102A0000944206D0074B40F275720749074807F019
:102A100055F938BD034B40F256720549034807F09B
:102A20004DF9E5E7FCB300080CB50008FCB100085F
:102A3000E4B400082DE9F84306460C461546089F05
:102A40009DF828909846CBB1FFB1AC4229D29DF8B1
:102A5000243013F0020F08D17B8B13F0400F3AD1D2
:102A6000B9F1000F01D0FB6EB3B104F21B2121F0CC
:102A700003018D4228BF0D46A9B213E0174BE8228F
:102A80001749184807F01AF9DEE7144BE9221649EE
:102A9000144807F013F9D8E73B6F002BE5D1214626
:102AA00000E021464FF42072304604F06BFF0546EB
:102AB00070B1036833B1094B40F20B120B4909485E
:102AC00007F0FCF86B891B1BA8F800302C816C8187
:102AD0002846BDE8F8832146E4E700BFFCB30008C0
:102AE00020B50008FCB1000844B5000864B5000832
:102AF0002DE9F0470E46174698469DF820A08146DE
:102B0000002841D0002E46D04FEA8A0505F0040582
:102B10000320FFF7A1FE0446002843D080F80AA056
:102B200000230360466033891FFA85FA53453DD37D
:102B30003189A1EB0A0121811421304604F075FE90
:102B400000283AD163685E68E660B9F8160001F0C3
:102B50003FFC3080E668B9F8180001F039FC70805D
:102B6000E668404601F039FC7060A8080530E56869
:102B700047EA003001F02CFCA881E36800229A7437
:102B8000DA742046BDE8F0870E4BA3220E490F48A9
:102B900007F094F8B6E70B4BA4220D490B4807F059
:102BA0008DF8B1E7304604F08BFEEAE7054BB02222
:102BB0000849064807F082F8BAE7204603F036FED7
:102BC0000024DEE7FCB3000878B50008FCB100087B
:102BD00098B50008BCB500082DE9F04106460C4642
:102BE0009846114489B214314FF4207289B22220E0
:102BF00004F0C8FE074648B304F113034289934228
:102C000027DA7D68BDF8180001F0E2FB2880BDF8E6
:102C10001C0001F0DDFB6880C5F80480304601F03F
:102C2000DCFBA860A40805342403A4B29DF82000AE
:102C3000204301F0CDFBA881BDF8240001F0C8FBC2
:102C4000E88100232B746B74AB74EB743846BDE8D9
:102C5000F081044B40F223720349044807F02EF838
:102C6000CFE700BFFCB30008D4B50008FCB10008F2
:102C7000F0B585B00D4616461F460446A0B1638DDB
:102C8000039310230293238B0193E38A00933B4623
:102C900032462946606AFFF79FFF18B1636A628D6A
:102CA0001344E36205B0F0BD034B40F242720349A6
:102CB000034807F003F8E2E7FCB3000804B6000895
:102CC000FCB1000808B508B1007A18B9104605F043
:102CD00083FF08BD03F034FBFBE700002DE9F04162
:102CE00084B00C461646054648B184B1BEB12846AC
:102CF000FFF760FED8B1002004B0BDE8F0813F4B83
:102D00004FF4B7623E493F4806F0D8FFEDE73B4B32
:102D100040F2B9523C493B4806F0D0FFE6E7374B5A
:102D200040F2BA523949374806F0C8FFDFE7EF688A
:102D3000606A01F052FBB860EF68608D01F048FBFB
:102D4000F881636A628D1344E362D5F80C8008F160
:102D50001407AB7A13F0010F34D1B4F93030002BE3
:102D60003FDB636B002B3FD0EB686A6851685B1AEE
:102D70009BB25189C91A518169680A89D31A0B819A
:102D80006A68EB68536000221A745A74EA68AB7A76
:102D90009B0003F0040314331344BB4206D0174BCB
:102DA00040F21C621A49174806F088FF0296062373
:102DB0000193A37A0093E37A221D2146686806F006
:102DC000B1F899E7221D31464FF4067003F016FE64
:102DD00040F0017001F001FBC8F8140008F1180779
:102DE000BBE700232386BCE70A4B1B686363EB68E1
:102DF000586801F0F2FAA063B6E700BFFCB3000820
:102E00002CB60008FCB100084CB600086CB60008EF
:102E10000CB5000854CA0020F0B585B0044615462C
:102E20001E460F46C9B1324629462046FFF74AFFE3
:102E30000246E8B1CCB1E37AA17A0292062201926D
:102E4000009132462946384606F06CF8044638466A
:102E500004F036FD204605B0F0BD074B40F2877206
:102E60000649074806F02AFFDDE70021FF23E4E7D3
:102E70006FF00304EBE700BFFCB3000890B6000856
:102E8000FCB100082DE9F04F91B0089107930023A1
:102E9000ADF83E30002800F0978092468046B0F8AA
:102EA00062305B08B0F832B05B4528BF5B4603B1C7
:102EB0009B46089B002B00F0928051464046FFF74E
:102EC0001BFD0A90002840F09681B8F86660D8F89B
:102ED0006C90B9F1000F00F0D4804B4609931B6849
:102EE000002BFBD19946099B9C7AA40004F00404B2
:102EF0001B8923449B457DDB099B1B891C44A4B291
:102F0000ABEB0404A4B2B8F868300B93ADF83E30D4
:102F1000002B7FD0A34275D8BDF83E301A465345EA
:102F200028BF5246A24228BF22460B929B1AADF8F8
:102F30003E30A41AA4B2099FBDF83E300B9A002B74
:102F400018BF524568D10B9B002C18BF534580F029
:102F50006081099A12890D92002A00F06381AAEB20
:102F60000305A542A8BF2546AFB2079B13F0010F8A
:102F70005AD1099BD3F804904A4613461268002A96
:102F8000FBD191461A7B12F0C00F05D15A685B89BC
:102F90001344089A934267D001223946002004F076
:102FA000F1FC8146002800F0FA81089B0B9A13443B
:102FB000436004F0E9FD0644B6B200230D930B9B79
:102FC000DC19A4B2099F27E1A64B4FF4CF72A649A2
:102FD000A64806F073FE6FF00F030A930BE1A14BB6
:102FE00040F2AD12A249A14806F068FE6FF00F034F
:102FF0000A9300E19B4B4FF4F3729E499B4806F005
:103000005DFE79E7974B4FF4FC729B49974806F0B9
:1030100055FE81E74F468FE7924B4FF40072974978
:10302000924806F04BFE8EE701230293079B019323
:10303000CDF800800DF13E03224639460020FFF70F
:10304000F9FC8146002800F0A8813A46089B0B99BC
:103050005918406806F002FE484604F095FD064403
:10306000B6B200230D93AAE70B9B0BB90D97A6E709
:103070007C4B40F2312282497C4806F01FFE0D97BE
:103080009DE7B8F868402CB90D940B944F46CDF8E5
:103090002490C1E0734B40F24A227A49734806F00B
:1030A0000DFE4F46CDF8249000240D940B94B3E010
:1030B000069BB3FA83F35B090293079B0193CDF858
:1030C00000800DF13E035A4629463620FFF7B2FC38
:1030D0000746002800F065814389AB4206D32A46A3
:1030E000089B1919786806F0B9FD1FE05D4B40F2A6
:1030F000662265495D4806F0E1FDF0E701222946B8
:10310000362004F03FFC8146002800F04D81089BEA
:10311000234443604FF420720021362004F032FC37
:103120000746002839D0494604F050FD384604F0DF
:103130002BFD0644B6B2092E35D8D8F85C300022F3
:103140000092234439464046FFF7D2FC0746002848
:1031500000F02D81069B002B59D0059B002B4ED0F3
:10316000059B1F602C44A4B2059754455CD2AAEB82
:103170000405ADB25D4528BF5D46079B13F0010F06
:1031800096D1BDF83E30002BB8D0364B40F27122BC
:103190003E49364806F092FDB0E74846DDF83090EB
:1031A00004F08EFB04E0DDF83090384604F088FB34
:1031B000B8F81A3043F08003A8F81A30B9F1000FBC
:1031C00002D0484604F07CFB069B13B1184603F07E
:1031D0003AFBB8F86630002B00F0F780D8F8703072
:1031E000002B40F0F680D8F86C30002B00F0E28025
:1031F0004FF0FF330A930A9811B0BDE8F08F194BD6
:1032000040F2AB222249194806F058FDA8E7069083
:10321000A8E70B9C00230D93002306930593CDF89C
:103220003090A2E70B9CF7E7DDF830900B9D002D66
:1032300035D0099B5C68DDF820B000E024684CB311
:1032400023892B4423812368002BF7D1606863898D
:103250002A465946184406F001FD63892B446381D0
:10326000ECE700BFFCB30008BCB60008FCB10008E6
:10327000D4B6000808B7000820B7000840B7000817
:1032800060B700088CB70008BCB70008FCB700089E
:103290000CB80008099A13890B9919441181BDF8DB
:1032A0003E30A8F86830B9F1000F40D0099B002BE0
:1032B00035D04946099C606804F088FCB9F80830AC
:1032C000228913442381099B002B56D0099B069A1F
:1032D0001A60D8F85C305344C8F85C30B8F86430F1
:1032E000A3EB0A0AA8F864A0A8F866601EB1D8F893
:1032F0007030002B45D0002F3FF47DAFFB68002BD2
:103300003FF479AF079A12F0020F7FF474AF9C89F3
:10331000082001F05DF8FB6804439C816BE72F4BAC
:103320004FF438722E492F4806F0C8FCC1E70D9BB8
:10333000002BC8D0099B2BB15B681BB1099B5B6854
:103340000D980BE0254B40F2E6222749254806F070
:10335000B5FCF3E71A8902441A810B461968002963
:10336000F8D11A890D990A441A815A890A445A8156
:10337000099A13890B441381A5E7069BC8F86C30A2
:10338000A7E7D8F86C30002BB5D1144B40F21232BD
:103390001649144806F092FCADE7069008E706903F
:1033A00006E7DDF8309003E7DDF8309000E7DDF860
:1033B0003090FDE6094B40F227320C49094806F0EF
:1033C0007DFC4FF0FF330A9315E74FF0FF330A936C
:1033D00011E74FF0FF330A930DE700BFFCB300087D
:1033E00020B80008FCB1000858B8000890B80008E0
:1033F0002DE9F04F83B00C46074600283DD0FD6E06
:10340000002D00F0BB80002C3FD02B89A34240F25E
:10341000B8807B8EA34242D32B89002B47D095F8EE
:103420000A904FEA890B0BF0040BB5F808A0AAEB41
:103430000406B6B206EB0B014FF4207289B23620B7
:1034400004F0A0FA804670B1686803892A899B1A43
:1034500014FA83F3D8F804109BB23246594404F0AE
:103460008DFCB0422BD0B8F1000F00F08E804046AA
:1034700004F026FA4FF0FF3084E0454B40F24B3227
:103480004449454806F01AFCB9E7414B40F2533233
:103490004249414806F012FC6FF0050072E03C4BD7
:1034A00040F25B323E493C4806F008FCB4E7384B3A
:1034B0004FF457723B49384806F000FCAFE7EB6821
:1034C000988900F085FFC3B200F03F0610F0080BAA
:1034D00003D003F037064FF0080B16F0010F03D0AE
:1034E00006F0FE064BF0010BEB68586800F075FF24
:1034F000CDF8009023185A4641463846FFF7F8FAAF
:1035000081460028AFD0686804F03EFBB7F866300B
:103510001B1AA7F8663068680189A4EB0A04A4B2F4
:10352000214489B204F0DCFA2B891C442C81EB681D
:103530009C89304600F04CFFEB6804439C8168682E
:1035400004F022FBB7F866301844A7F86600D9F8F3
:10355000040004F019FBB7F866301844A7F86600B9
:103560002B68C9F80030C5F80090D9F800300BB1CD
:10357000002007E00020A7F8680003E04FF0FF30CC
:1035800000E0002003B0BDE8F08F4FF0FF30F9E716
:10359000FCB30008B0B80008FCB10008D4B80008BB
:1035A000F8B8000808B900082DE9F04383B00446D4
:1035B0000D4611F003074ED0002C54D015F0020830
:1035C00001D04FF001084FEA880606F004064FF4D8
:1035D00020723146362004F0D5F9814600284AD0C1
:1035E00043899E424ED8CDF80080E36D2A46494675
:1035F0002046FFF77DFA064600284BD0C36813F03B
:10360000030F4ED13389002B53D1E36E002B58D0DA
:103610001A461B68002BFBD116600023A4F8683003
:1036200017B1E36D0133E36515F0010F03D0638B30
:1036300043F020036383706804F0A6FAB4F86630A0
:10364000184480B2A4F86600002849D0236F002BEC
:1036500039D0002045E0244B40F211422349244850
:1036600006F02CFBA8E7204B40F2134221492048EA
:1036700006F024FBA2E7638B43F0800363834FF0E3
:10368000FF302EE0184B40F239421B49184806F033
:1036900015FBA8E7638B43F0800363834FF0FF3093
:1036A0001FE0114B40F242421449114806F006FB5C
:1036B000A8E70D4B40F2434211490D4806F0FEFACF
:1036C000A3E7E666A9E7E36E0BB1002009E0064B2D
:1036D00040F265420B49064806F0F0FA002000E08F
:1036E000002003B0BDE8F083FCB3000818B900085F
:1036F000FCB1000870B9000890B90008CCB9000806
:10370000E4B9000810BA000870B5054688B1EB6E40
:1037100053B11C461B68002BFBD1E368988900F06D
:1037200057FE10F0070F0CD001212846FFF73CFF91
:1037300070BD0B4B40F2EB320A490B4806F0BEFA63
:10374000E5E7E3689E89012000F042FEE368064356
:103750009E816B8B43F020036B830020E8E700BF62
:10376000FCB3000838BA0008FCB10008F8B50546FB
:1037700058B12C6F002C34D0236873B12046FFF76A
:1037800019F9002830D12468F6E71A4B40F2636239
:1037900019491A4806F092FAEBE72046FFF70AF9B2
:1037A00028BBEB6E23602B6FEB6600232B676B8BC4
:1037B00043F400636B83E368586800F00EFE06462E
:1037C0002789E368988900F003FE10F0030F06D004
:1037D00001231F443E44EE6400206863F8BD0023CB
:1037E000F7E76FF00500F9E76FF00500F6E76FF017
:1037F0000500F3E7FCB3000854BA0008FCB1000868
:10380000F8B5074650B13E6F8EB33046FFF7D2F899
:1038100080BB33683B6707F16C0508E0174B40F24B
:10382000C1621749174806F049FAECE72D682B6882
:103830005BB1DB68586800F0D0FD0446F368586857
:1038400000F0CBFD241A002CF0DB2B6833602E60D7
:1038500033684BB197F84230FF2B02D0013387F821
:10386000423000207863F8BDA7F86830F2E76FF0C7
:103870000500F8E76FF00500F5E700BFFCB30008AE
:1038800078BA0008FCB1000810B5044630B1236FC7
:103890001BB1638B13F0040F08D010BD154B40F221
:1038A000F9621549154806F009FAF0E72046FFF7D6
:1038B000A7FF0028F1D1B4F86030B4F84820934253
:1038C00028BF13465B08A4F84A30628EB3EB420F60
:1038D00002D25300A4F84A30B4F84A3002EB420254
:1038E0001A44A4F84820638B43F004036383002345
:1038F0002386D2E7FCB3000890BA0008FCB10008A8
:103900002DE9F04184B004460E4615460A9F9846BC
:103910002BB367B3304600F060FD034646F2080261
:10392000039214220292BDF830200192BDF82C209F
:103930000092002211462846FFF74EF9054658B17D
:1039400000231A4601462046FFF74EF83B46424602
:1039500029462046FFF760FA04B0BDE8F081084B25
:1039600040F2C4720749084806F0A8F9D1E7044BB1
:1039700040F2C5720549044806F0A0F9CAE700BF45
:10398000FCB30008B0BA0008FCB10008CCBA0008CB
:1039900038B50446E0B1206D00F01FFD034600225B
:1039A00011462046FFF764F90546C8B100231A46C0
:1039B00001462046FFF718F8231D224629462046D7
:1039C000FFF72AFA98B1638B43F00303638338BD92
:1039D000094B40F2EA720949094806F06FF9DAE743
:1039E000638B43F0030363836FF00100EFE7638BA6
:1039F00023F003036383EAE7FCB30008E8BA000896
:103A0000FCB100082DE9F047054600283BD02B7D8E
:103A1000012B40D0A04B1B68AB4200F03581B5F8BC
:103A20004860B5F860309E4228BF1E46EC6E002C00
:103A300039D02A1D29462846FFF744F98046002838
:103A400000F024810DB12B6833B918F1040F00F098
:103A50002081D8F804302B60E368586800F0BDFC82
:103A60006B6CC01A23891844B0423CD9B5F8603059
:103A70009E4229D06B8B13F0020F18D02846FFF717
:103A800087FF034618E0854B40F2E14284498548B0
:103A900006F014F9BBE7814B40F2E34282498148CA
:103AA00006F00CF9B6E76B8B13F0020F07D16B8BA6
:103AB00023F080036B8300231846BDE8F087284677
:103AC000FFF766FF0346F7E72B6F002BD2D195F87F
:103AD0009930002BCED185F89830012285F89920B5
:103AE00085F89A30C6E7002385F899302B6F002BB4
:103AF00000F0C8801F461B68002BFBD156E0674BC7
:103B000040F236526949674806F0D8F861E01189F9
:103B10006A8E914269D2B5F86420002A65D0B5F862
:103B20006620082A61D813F0A00F5ED1EB6E002B3F
:103B3000BDD1A5F86830BAE7E368B3F80C9010205F
:103B400000F046FCE36849EA0009A3F80C904FE056
:103B50006A8B42F080026A83AEE7002068E0286545
:103B60006CE0002374E02C6727461EE005F1700A24
:103B700001E0DAF800A0DAF800306BB1DB685868D1
:103B800000F02BFC8146E368586800F026FCA9EBA6
:103B90000009B9F1000FECDBDAF800302360CAF855
:103BA000004002E0204602F041FEEC6E002CBDD049
:103BB000E368586800F011FC6B6CC01A2389184444
:103BC000B042B3D8E368988900F002FC10F0040F0B
:103BD00095D12B6F4BB16B8B13F0440F05D1EA6E6F
:103BE000002A98D01168002991D02B7D022BA3D1F7
:103BF000424629462046FFF771F803460028A7D120
:103C00002368EB662B7D022B03D06B8B23F0030321
:103C10006B83E368586800F0E0FB8146B4F808A0C5
:103C2000E368988900F0D4FB10F0030F95D00120D1
:103C3000504448442B6D1B1A002B90DBB4F80890BD
:103C4000E368988900F0C4FB10F0030F89D00123CA
:103C500019EB030FA6D0002323602B6F002B82D01B
:103C6000E368586800F0B9FB8146FB68586800F0CB
:103C7000B4FBA9EB0009B9F1000FFFF677AF3C6088
:103C8000274692E71F4691E7002315E76FF00303ED
:103C900012E76FF003030FE720CA0020FCB300080F
:103CA00008BB0008FCB1000820BB000848BB0008A6
:103CB00010B5044650B194F84230FF2B02D00133C6
:103CC00084F842302046FFF79DFE10BD034B4FF4B1
:103CD000D3620349034805F0F1FFECE7FCB30008A9
:103CE00060BB0008FCB1000810B5044620B12046B6
:103CF000FFF73CFD40B110BD054B40F2AD620549F8
:103D0000054805F0DBFFF2E72046FFF7D1FFF2E7B9
:103D1000FCB3000884BB0008FCB1000838B50446B9
:103D2000C0B1206D013800F058FB03460022114657
:103D30002046FEF79DFF0546A0B100231A46014626
:103D40002046FEF751FE231D224629462046FFF756
:103D500063F838BD054B40F624020549054805F0D7
:103D6000ADFFDEE74FF0FF30F3E700BFFCB3000824
:103D7000A0BB0008FCB100082DE9F0410446A8B141
:103D8000E56E002D5BD094F89A30FF2B02D0013302
:103D900084F89A30EB68988900F01AFB10F0010F54
:103DA0000CD02B89002B3BD0002208E0264B40F69C
:103DB0004F022649264805F081FFE1E7002202F084
:103DC000FF07EB685B6882F0010200212046FEF7E6
:103DD0004FFF0646A8B3D0F804801FB3B8F90C70A3
:103DE00027F47C57112000F0F3FA00B20743A8F83B
:103DF0000C70EB68586800F0F0FA0130236D1B1A64
:103E0000002B1ADB00231A4631462046FEF7ECFD54
:103E1000231D224631462046FEF7FEFFBDE8F08115
:103E20000122CCE7686803892A899B1A9BB2012288
:103E300008F1140103F0A2FFDBE72065E2E70020B0
:103E4000ECE74FF0FF30E9E7FCB30008BCBB00082B
:103E5000FCB1000808B500F0C7F8FEF7D5FC02F089
:103E60001BF900F017FB02F069FB04F09DF808BD98
:103E7000014B1B6818447047D8A10020024B1B68F7
:103E8000C01A80B2704700BFD8A10020F8B5044620
:103E9000FFF7F4FF074625882846FFF7E9FF0646A7
:103EA00064882046FFF7E4FFB5F5205F10D8B4F52D
:103EB000205F0FD8BC4202D00388BB420CD1094B13
:103EC0001B68B3420AD07388BB4209D1012000E0CD
:103ED0000020F8BD0020FCE70020FAE70120F8E709
:103EE0000020F6E7DCA1002038B50446354B1B68FE
:103EF000834240D8344B1B68A34244D92379002B1A
:103F000049D12388B3F5205F4DD82088FFF7B0FF53
:103F1000844216D00379A3B92B4B1B68834210D07F
:103F20002A4B1B68834246D0038823800088B0F563
:103F3000205F06D0FFF79CFF05462046FFF79EFF57
:103F400068806088FFF794FF0546844212D00379A9
:103F500083B91E4B1B68A34230D023882B80208856
:103F6000B0F5205F06D0FFF783FF04462846FFF731
:103F700085FF608038BD164B40F2DF1215491648A8
:103F800005F09CFEB6E7124B4FF4F072134912484D
:103F900005F094FEB2E70E4B40F2E11210490E48D4
:103FA00005F08CFEADE70A4B4FF4F2720D490A485A
:103FB00005F084FEA9E7054B1C60B5E7034B1860CC
:103FC000CBE700BFD8A10020DCA10020D4A10020B5
:103FD000E0BB00080CBC0008FCB1000824BC0008D1
:103FE00040BC00085CBC000838B50B4C24F003044E
:103FF0000A4B1C604FF420552580002363802371F9
:104000002846FFF735FF064B186001230371058032
:104010004580044B1C6038BDE3A10020D8A10020DE
:10402000DCA10020D4A10020002844D038B50446EB
:1040300010F0030F1FD1A0F108051F4B1B68AB4206
:1040400021D800F10C031D4A126893421BD810F8C6
:10405000043C03B32846FFF719FF20B3002304F8FC
:10406000043C174B1B68AB4201D9154B1D60284619
:10407000FFF73AFF0EE0134B40F273221249134848
:1040800005F01CFE06E00F4B40F27F2210490F485E
:1040900005F014FE38BD0B4B4FF423720D490B484D
:1040A00005F00CFEF6E7074B40F295220A49074857
:1040B00005F004FEEEE77047D8A10020DCA1002047
:1040C000D4A10020E0BB000888BC0008FCB10008B7
:1040D000ACBC0008C8BC0008F0BC00082DE9F843DF
:1040E0000546CC1CA4B224F00304A4B20B2C00D8C7
:1040F0000C248C422CBF00210121B4F5205F88BF25
:1041000041F00101002940F095804D4B1B68AB4206
:1041100003D84C4B1B68AB4206D84B4B40F2D12224
:104120004A494B4805F0CAFD454B1B68AB4200F2BB
:104130008280444B1B68AB427DD9A5F10800FFF794
:104140009DFE064635F8088CA8EB00081FFA88F893
:10415000A8F108081FFA88F8444529D844456DD8C5
:1041600069D035F8087C3846FFF782FE814603792E
:10417000002B33D1B7F5205F22D0B9F8007034445A
:10418000A4B20834A4B2334B1B684B4520D0204660
:10419000FFF76EFE002303710780468025F8084C68
:1041A0000088B0F5205F46D0FFF762FE448042E011
:1041B000254B4FF439722849254805F07FFDCDE79E
:1041C000214B40F2F5222549214805F077FDD4E73F
:1041D0002046FFF74DFE1F4B1860D8E704F114038B
:1041E000434528D83444A4B20834A4B2B7F5205FBC
:1041F00018D02046FFF73CFE164B1B68834201D9BE
:10420000144B18600023037135F8083C0380468086
:1042100025F8084C0088B0F5205F0CD0FFF728FE89
:10422000448008E0084B40F216320C49084805F07B
:1042300045FDDEE700252846BDE8F8830025FAE7BE
:10424000D8A10020DCA10020E0BB000824BD0008AC
:10425000FCB10008D4A100203CBD00085CBD0008F2
:10426000002800F09E802DE9F0410346C61CB6B23E
:1042700026F00306B6B20B2E00D80C269E422CBFA9
:1042800000230123B6F5205F88BF43F00103002B14
:1042900040F08980454B1868FFF7F0FD05464CE07B
:1042A000434B40F287324349434805F007FD62E043
:1042B000012303713D4B1868A0420FD027440837F3
:1042C0003E4B1B689F421FD814F0030524D15DBBF1
:1042D00004F1080063E00088FFF7CAFD03791BB111
:1042E000364A12688242F6D1304A1060334A126868
:1042F0008242E3D0002BE1D02D4B40F2B532304961
:104300002D4805F0DBFCD9E7294B40F2B9322D49A5
:10431000294805F0D3FCD7E7254B40F2BB322A49A8
:10432000254805F0CBFCD2E7214B40F2BD322749AE
:10433000214805F0C3FCCBE72588A8463746C6F5DB
:1043400020539D422AD22846FFF792FD0446037966
:10435000002BF1D10388A3EB0803083BBB42EBD34E
:1043600007F114029342A3D32E44B6B20836B6B274
:10437000B6F5205F94D03046FFF77AFD0023037135
:104380002388038045802680012323710088B0F5AF
:10439000205F8FD0FFF76CFD46808BE70020BDE8E3
:1043A000F081002070470020F9E700BFD4A1002071
:1043B000E0BB00085CBD0008FCB10008DCA10020E7
:1043C00070BD00088CBD0008BCBD0008ECBD000835
:1043D000030A43EA002080B27047030203F47F031C
:1043E00043EA0063020A02F47F42134343EA106087
:1043F00070470000F8B50E4615460746C8B1FEB135
:104400003C7A3CB11E4B5B6893F830300133DBB231
:104410009C4225D1DDB12FB33B682BB3184A5269BA
:10442000B2F1FF3F22D0B16853400B4220D00020B0
:1044300017E0144B87221449144805F03FFCDEE7CF
:10444000104B88221249114805F038FCD8E78FB18B
:104450003B688BB10A4A526993420FD0284600E06C
:104460000020F8BD0120FCE70120FAE70120F8E771
:104470000120F6E70120F4E70120F2E70120F0E750
:10448000BCA1002010BE00083CBE0008FCB1000822
:1044900060BE000808B505F029FC024B0343024A40
:1044A000138008BD00C0FFFF200000202DE9F04F61
:1044B00083B00F468146D0B107B3B9F80A30072B55
:1044C00023D9D9F80440524B1968586905F072F99C
:1044D00080462088FFF77CFF82466088FFF778FFE0
:1044E00005464C4B1C684FF0000B5E4619E04A4BEA
:1044F000CF224A494A4805F0E1FBDDE7464BD0228E
:104500004849474805F0DAFBD7E7484603F0D8F9B1
:1045100003B0BDE8F08FA346A38A534526D02646B4
:10452000E468002C2FD0638AAB42F8D1424639466A
:104530002046FFF75FFF0028F1D0237C13F0040F23
:10454000EAD1BBF1000FE6D0B8F1000FE4D0304B58
:104550005B69B3F1FF3FDFD1DBF800207B689A4253
:10456000DAD022689342D7D1A346D5E763681BB15E
:10457000274A12699342D2D12EB1E368F360254BEA
:104580001A68E2601C6084B18CB10821484603F0CF
:1045900051F9A8B91CB3A569EDB1E069CDF800A047
:1045A000214B4A462146A847B2E75C46ECE77A68C9
:1045B000174B5B699A42E8D0484603F081F9A7E7B8
:1045C000154B4FF4B8721949154805F077FB48466A
:1045D00003F076F99CE7484603F072F998E7B8F1E2
:1045E000000F05D10A4B5B6903F0F003E02B03D108
:1045F000484603F065F98BE7054B9989083109B204
:10460000484603F057F90321484604F0BFFAEFE7A4
:10461000BCA10020F4C9002010BE000888BE00081C
:10462000FCB10008A0BE0008CCA10020BCBE000860
:10463000B8B102460368A3B199B10B688BB1094BBD
:104640001B686BB110B401E0DB6833B110681C6803
:104650008442F9D108681860F6E75DF8044B7047AA
:1046600070477047F4C900200A4A1388591C11800A
:10467000094A116819B1094A1288934204D2084ABA
:1046800012681344187D7047DBB2D2B29B1ADBB2BA
:10469000C85C704724CA002030CA00202CCA002001
:1046A00028CA002038B50446E8B1224B1B88002BED
:1046B0003ED0214B00221A801F4B1A881D4B1B88AD
:1046C0009A4235D2FFF7D0FF0128F5D0022812D048
:1046D00070B3FFF7C9FF01282AD9174B1A88104475
:1046E00002381880E8E7154B40F27D7214491548EE
:1046F00005F0E4FAD9E7FFF7B7FF042818D10E4B0D
:104700001B8801330B4A1288934211DAFFF7ACFF82
:1047100085B22D02ADB2FFF7A7FF80B205436B1E35
:104720009BB2B3F5067F01D34FF406756586C3E7E8
:1047300038BD00BF34CA002024CA0020D8BE0008FB
:1047400008BF0008FCB1000810B5044630B1114B99
:104750001B7813F0100F09D1002010BD0E4B40F252
:104760005A220E490E4805F0A9FAF0E7638B13F0C0
:10477000100F06D1D4F890301BB16FF00E012069F4
:1047800098472146074802F095F9204601F0E2FEDD
:104790000120E2E718CA0020D8BE000824BF0008A4
:1047A000FCB1000844CA0020234B1B7813F0040F0F
:1047B00041D130B585B00446A0B11F4B1B7813F032
:1047C000020F29D01D4B1A68636AD11A002904DB35
:1047D000218D0B44D31A002B0CDD194B1B8813BB06
:1047E00005B030BD174B40F2EE221749174805F0CF
:1047F00065FAE2E7164B1968164B114800880D88D8
:10480000029549880191191F0091024412490968D3
:104810002046FFF775F8E3E713F0010FDDD00F4BEB
:104820001B682362D9E7638B43F00203638320464E
:10483000FFF7E8F8D4E77047FCC900201CCA002045
:1048400036CA0020D8BE00084CBF0008FCB10008E2
:1048500028CA0020D0A10020F8C9002054CA002096
:10486000474B1B7813F0040F40F08880F0B585B0FB
:10487000044648B1424B1B7813F0100F0CD113F0D3
:10488000020F1DD105B0F0BD3E4B40F281223E49E2
:104890003E4805F013FAEDE73D4B19683D4B3E4AA3
:1048A00010883E4A12680D88029549880191191FA7
:1048B000009102443A4909682046FFF721F8E1E7F0
:1048C000607D02F0C5FA0546002849D0354B5A698B
:1048D00002601B694360E38AC3822D4E33681B88E4
:1048E0000383032303752D4F3B6801334362C36287
:1048F00002F068F8A86528656864E8653B68013BD4
:104900006B6523692B61EC67637A03F00C036B72B0
:10491000237A2B72244B1A68EA601D6003F00AFBAD
:10492000224B01221A702846FFF7BCFE3368DB8950
:10493000A5F86030A5F862306E8E2C1D204604F07C
:104940004BF901462246304602F058F8688612219B
:104950002846FEF729FE60B92846FFF753F891E78D
:10496000A369002B8ED04FF0FF32002120699847B9
:1049700088E70021284602F005F983E7704700BF69
:10498000FCC90020D8BE00086CBF0008FCB10008BC
:1049900028CA0020D0A1002036CA00201CCA00204E
:1049A000F8C90020BCA1002044CA002048CA002049
:1049B0002DE9F04106460C461F4608E0264B40F222
:1049C00057422649264805F079F922E04446002C52
:1049D0003FD0E3685868FFF700FD0546B4F808804B
:1049E000E3689889FFF7F4FC10F0030F2FD0012043
:1049F000804445441B4B18682D1A002D29DCD4F83F
:104A00000080606803F0C0F80546B6F8663083425F
:104A1000D4D3B6F86600451BA6F866502389124A1F
:104A200011880B441380204601F000FFB6F8663071
:104A3000002BCBD0B8F1000F08BF002FC6D1064B1A
:104A400040F261420949064805F038F9BEE7002006
:104A5000CEE72046BDE8F081D8BE00088CBF000834
:104A6000FCB10008F8C9002010CA0020B4BF00083B
:104A700070B50C46054660B1EB689889FFF7A8FC55
:104A800010F0010F12D0204601F0DDFE00242C6052
:104A900070BD1D4B40F21F421C491D4805F00EF928
:104AA000EAE72668204601F0C1FE3446CCB12B89E6
:104AB000184A12681344E1684A68208902449B1A24
:104AC000002B0EDB8889FFF783FC10F0010FE8D084
:104AD000EB689E890120FFF77BFCEB6806439E8113
:104AE000DFE7002CD3D02B890A4A11680B44E26817
:104AF00052689B1A002BCADD521A91B2298168684C
:104B000002F0EEFFC3E700BFD8BE0008D4BF000824
:104B1000FCB100081CCA0020F8B5044600286FD07C
:104B2000237D032B74D9A84B1B7813F0100F3CD0B6
:104B3000B4F86000A26D8618616DA44B1B68CD1A95
:104B4000002D0ADB99426BD0A14909688A4214D131
:104B5000A04A1268D28990420FD29E4A1268D28926
:104B600090B2A4F86020B4F86210884201D9A4F889
:104B700062206365964B1B68A365954B1B68616C4F
:104B80005A1A002A52DD012A03D4226D9A1A002AE9
:104B90007EDD2046FEF7FCFE636B33B1A26B8C49D1
:104BA0000968521A002AC0F236818B4B1B88002BF1
:104BB00000F03884227D062A00F23484616A834A38
:104BC00012688E1A012E05D41344CB1A0133002B20
:104BD00040F34781521A002AC0F285817B4B1B6843
:104BE000616A5A1A002A06DB228D0A449A1A013297
:104BF000002A40F37D812046FEF7CAFE00F022BC69
:104C0000764B40F27B427649764805F057F887E7C5
:104C1000724B40F27C427449724805F04FF882E7CB
:104C20006B490968511A00298EDA96E76A4A128898
:104C30002AB9A26DB4F860000244B24203D0002346
:104C400084F84330A8E7B4F93020002AF7DB8B4220
:104C5000F5D194F84330FF2B02D0013384F8433070
:104C600094F84330032B08D9B4F84810628E0A44F4
:104C700092B2914207D8A4F84820022B8CD9204642
:104C8000FEF702FE88E74FF6FF72A4F84820F4E72B
:104C9000628B12F0040F09D022F004026283B4F890
:104CA0004A20A4F848200022A4F86A20002084F8B2
:104CB0004200B4F93C50E28F02EBE502A4F8402038
:104CC0009AB289B2511A89B284F843006364237D91
:104CD000032B17D9B4F84830B4F84A2093424BD28A
:104CE000628B12F4006F40D00122608E12FB00F242
:104CF00092B28A4294BF9818581882B2934236D81A
:104D0000A4F84820E36E394A216F2046FFF750FE91
:104D100003462067364AE16E2046FFF749FEE0660B
:104D2000226F002A49D000232386002323770028FE
:104D300047D0B4F864302F4909880B44A4F8643094
:104D4000638B13F4006F3FF427AF002A54D0E56C57
:104D5000D3685868FFF741FB2D1A002D3FF71CAFB1
:104D6000638B23F40063638316E70222BDE74FF6EB
:104D7000FF73A4F84830C5E7B4F86A20114489B23B
:104D80008A4210D8A4F86A10B4F86A209342B9D8BD
:104D9000D21AA4F86A20628E1A4492B2934207D8BB
:104DA000A4F84820AEE74FF6FF72A4F86A20EBE7BC
:104DB0004FF6FF73A4F84830A4E74FF6FF7323863D
:104DC000B3E7A4F86830B4E7FCC900201CCA00208F
:104DD000F8C9002028CA002036CA0020D8BE000822
:104DE000FCBF0008FCB1000818C0000834C000086F
:104DF0003CC0000810CA002040B1E56CC368586888
:104E0000FFF7EBFA2D1A002D3FF7C6AE638B23F4A4
:104E100000636383C0E6894A16889BB2F21A92B295
:104E2000B4F93C00C0F3CF05521B11B280B210FAA6
:104E300082F212B2A28700290FDBB4F93E30A1EB57
:104E4000A3019BB213FA81F1E187D21012FA81F229
:104E5000A4F8402000236363A7E69B1B2B4419B2F0
:104E6000EBE7774B5D68DDB14FF6FE739E421FD8CE
:104E7000B6B2734B5B681B89B34221D3704B1A895E
:104E8000921B1A815B681A89921B92B26B89B3429A
:104E90001ED2F31A9EB22A8100236B812D68F5E79A
:104EA000684B40F294526849684804F007FFDBE71A
:104EB000644B40F295526649644804F0FFFED7E720
:104EC000604B40F297526349604804F0F7FED5E723
:104ED0003146284602F0AEFC636A5F4A1360584AC6
:104EE000D26853607AE6638B43F00203638375E60E
:104EF0008B4205D0656F002D00F0AC810026CEE11D
:104F00004F4B1D89DB689889FFF762FA10F0030F99
:104F100014D001232B449BB2504A1380228D93421C
:104F20000ED8636F002B5ED0454BDB689889FFF786
:104F30004FFA10F0010F53D1656FA0E00023E9E7AD
:104F40003F4BDB689889FFF743FA10F0010F2FD130
:104F5000228D3B4B1A81DB689889FFF739FA10F0F4
:104F6000020F03D0364A1389013B1381344E318935
:104F7000706802F0B5FD3589F3689889FFF728FA63
:104F800010F0030F26D001232B449BB2334A138029
:104F9000314A12681344626A218D0A449342C0D098
:104FA000284B40F2CB522E49284804F087FEB8E740
:104FB000234EF368988905B225F47C5580B2FFF73B
:104FC00007FA00F03E00FFF703FA03B2F2681D4350
:104FD0009581BDE70023D7E70368636701F026FCEE
:104FE000606F0028F8D11D4B1A881B4B1B681344B7
:104FF0006362238D9A4200F2AE80238D174A128895
:105000009B1A2385204601F099FB0D4B5B681A899A
:1050100022B1144A13600A4B00225A60084BDB6825
:105020009889FFF7D5F910F0010F00F0C2800E4A01
:10503000137843F020031370BBE000BF54CA002074
:1050400000CA0020D8BE000844C00008FCB1000817
:1050500054C0000864C000081CCA002036CA0020E2
:1050600074C0000814CA002018CA002000231F447E
:105070009E4B1F802E68284601F0D8FB354665B34D
:105080009A4B1B889A4A12681344E9684A6828892F
:1050900002449B1A002B20DB8889FFF799F910F056
:1050A000010FE7D0934BDB689889FFF791F910F077
:1050B000020FDFD18F4EF3689F890120FFF788F937
:1050C000F36807439F813789F3689889FFF780F970
:1050D00010F0030FCAD00123C9E74DB1844B196802
:1050E000824B1B880B44EA6852689B1A002B01DC38
:1050F000656778E7521A7F4B1A81DB689889FFF75A
:1051000067F910F0020F03D07A4A1389013B13812B
:10511000784F3989786802F0E3FC3E89FB6898890A
:10512000FFF756F910F0030F13D0012333449BB25D
:105130006E4A13806E4A12681344EA6852689342BA
:10514000D6D06D4B40F2FC526C496D4804F0B6FD70
:10515000CEE70023EAE7684B40F2076269496848F6
:1051600004F0ACFD49E7002335E0002341E0624B49
:1051700040F22B626449624804F0A0FD3CE0002349
:1051800043E0624B196000236B60EB689889FFF77E
:105190001FF910F0010F07D05D4A137843F0200388
:1051A0001370237D042B42D02B686367284601F0DF
:1051B0003DFB656F002D3DD0EA685368616A8B4204
:1051C00038D14B490B602E899089FFF701F910F017
:1051D000030FC8D001231E44636A33446362278DE2
:1051E0002E89EB689889FFF7F3F810F0030FBCD015
:1051F00001231E44B742BAD32E89EB689889FFF782
:10520000E7F810F0030FBAD001231E44238D9B1B37
:105210002385204601F092FA69680B89002BB4D0EF
:105220003A4B18680028ACD002F0D0FCABE707235B
:105230002375B9E7638B13F0010F07D023F0010347
:105240009BB2638343F002036383FBE043F00103FB
:105250006383F7E0274801F013FB606704E0254B08
:105260001A892B899A4203D82046FEF791FBE9E080
:10527000204801F005FB03460028F5D02EB1306030
:1052800029461846FFF7F4FBEEE76067F8E7991A3E
:1052900000293FDB29682E4600294CD00D46002D01
:1052A000E2D0E86842689342D9D0002EEFD0F1688E
:1052B0004968591A0129EDD4991A01310029E9DC0C
:1052C0000C4801F0DDFA07460028CDD0F368596894
:1052D00033890B44064A12689B1A002B24DC376082
:1052E00029463846FFF7C4FBBEE700BF36CA002098
:1052F0001CCA002000CA0020D8BE0008ACC00008AC
:10530000FCB10008E8C0000808C1000814CA002069
:1053100018CA00204C4801F0B3FA0028A4D06067F6
:105320002946FFF7A5FB9FE7521A91B231817068B9
:1053300002F0D6FBD3E79A1A002A01DC0D46AEE74D
:105340008089FFF745F810F0010F8DD13E4801F03C
:1053500097FA2860002887D0EB6859682A890A44A0
:105360003A4B1B68D21A002A40DC394B1B88374A5B
:1053700012681344626A218D0A449B1A002B7FF73E
:1053800073AF2B68DB689889FFF722F810F0010FE4
:1053900033D1626A238D13449BB22A682B49096872
:1053A0005B1A13812B681989586802F099FB2B68E6
:1053B0001D89DB689889FFF70BF810F0030F2FD0D9
:1053C00001232B449BB2224A1380204A12681344C3
:1053D000626A218D0A4493423FF446AF1D4B4FF45D
:1053E000DF621D491D4804F069FC3DE75B1A99B274
:1053F0002981686802F074FBB7E72B68DB6898893D
:1054000006B226F47C5680B2FEF7E2FF00F03E00C2
:10541000FEF7DEFF03B22A68D2681E439681B8E722
:105420000023CEE7094B1B68626A991A002905DB45
:10543000218D0A449B1A0133002B03DD638B43F05B
:1054400002036383F8BD00BF00CA00201CCA00200D
:1054500036CA0020D8BE000874C00008FCB100089D
:1054600070B584B00446C8B1994B1B7813F0040F93
:105470003AD0217D022919D0626A964B1B689A4264
:105480001DD0991A002916DB218D0A449B1A002B86
:1054900011DC638B43F0020363830CE08E4B4FF40B
:1054A00047728E498E4804F009FCDDE7226D8D4B72
:1054B0001B689A4203D00025284604B070BD59B13C
:1054C000894A137843F008031370638B23F00103B8
:1054D00063836FF00D05EFE77F4B4FF44E72834906
:1054E0007F4804F0EBFBEBE713F0020F04D0237DC1
:1054F000023BDBB2012B1DD8638B13F0100F02D1DE
:105500007B4B1B682362002384F89B3084F89A301D
:105510002046FFF7C7F8237D023B072B00F24082AD
:10552000DFE813F00E00B20059016A01C101590110
:10553000F0012402638B43F0020363830025BBE781
:10554000634B1B7803F01202122A04D013F0100FE1
:105550007BD10025B0E7626C0132624909688A425A
:10556000F4D15C4B1B685A1C6262E2626164614A5E
:105570001268D289A4F86020A4F86220013B636518
:1055800004232375668EE518284603F025FB0146A3
:105590002A46304601F032FA6086420041F21C137E
:1055A000934238BF1346B3EB800F2BD983009BB2D5
:1055B000A4F84830B4F8663073B3B4F86630013BF1
:1055C000A4F86630256F7DB32B682367284601F069
:1055D0002DF9236F002B34D00023238684F842302A
:1055E000D4F8883043B10022214620699847054607
:1055F00010F10D0F3FF460AF638B43F00203638340
:10560000002559E741F21C139A4202D943009BB28C
:10561000CEE741F21C13CBE72F4B4FF45B723649B8
:105620002F4804F04BFBC8E7E56E15B12B68E36625
:10563000CCE7294B4FF45D723049294804F03EFB1A
:10564000F4E74FF6FF732386CAE72A4B19682C4B01
:105650002C4A10881F4A12680D88029549880191CA
:10566000191F009102441F4909682046FEF748F9B6
:1056700094F84230052B01D900251DE70025258629
:105680002046FEF731FB17E7114B1B7813F0100F84
:1056900000F09080134B1968636CCB1A012B03D474
:1056A000236DCB1A002B2FDD124B1868144B154AB3
:1056B0001588084A12680688029640880190181FCB
:1056C00000902A442046FEF71BF90025F4E600BFAF
:1056D000FCC900201CCA0020D8BE000830C1000848
:1056E000FCB10008F8C9002018CA00204CC100080D
:1056F00054CA002028CA00206CC1000884C10008D8
:10570000D0A1002036CA002004232375E36F002BAC
:1057100037D09B696BB3E36F9B69002B39D00022B4
:10572000214620699847054668BB2046FFF7F4F9F3
:105730009C4B1B8813B1013B9A4A1380638E59001E
:1057400041F21C128A4238BF0A46B2EB830F27D9B6
:105750009B009BB2A4F84830934B1B7813F0200FAA
:105760003FF4AAAE638B43F00203638307232375E0
:10577000A2E68E4B4FF46A728D498E4804F09EFA71
:10578000C9E76FF0050515F10D0F05D16FF00C0598
:1057900092E66FF00F05F6E7204601F079FAF5E79B
:1057A00041F21C12914202D95B009BB2D2E741F256
:1057B0001C13CFE713F0020F00F00A81636A013B6C
:1057C0007D4A1268934201D0002575E62046FEF717
:1057D00017F8002570E62046FFF79EF9724B1B78FC
:1057E00013F0200F00F0F680638B43F00203638315
:1057F0000723237500255FE62046FFF78DF96A4BE6
:105800001B7813F0200F39D06C4B1B7813F0100F5E
:1058100004D0226D6A4B1B689A4207D0638B43F019
:105820000203638308232375002545E6E36E002BFE
:10583000F4D1638B43F002036383204601F008F93F
:10584000604B1B68A34205D053B1DA68A24205D071
:105850001346F9E7DA685B4B1A6001E0E268DA6048
:105860000025E560584B01221A700A232375574B17
:105870001A68E2601C6002F05DFB1DE64F4B1B786E
:1058800013F0100F00F0A880226D4D4B1B689A4258
:1058900001D0002510E6E36E0BB100250CE60623CF
:1058A0002375002508E62046FFF736F93E4B1B78A6
:1058B00013F0200F01D10025FEE5638B43F00203B6
:1058C0006383204601F0C4F83E4B1B68A34205D019
:1058D00053B1DA68A24205D01346F9E7DA68394BCA
:1058E0001A6001E0E268DA600025E560364B0122CB
:1058F0001A700A232375354B1A68E2601C6002F0A7
:1059000019FBD9E52046FFF707F92C4B1B7813F05C
:10591000100F63D0226D2A4B1B689A4201D00025DC
:10592000CAE5E36E0BB10025C6E5204601F090F80C
:10593000244B1B68A34205D053B1DA68A24205D0BC
:105940001346F9E7DA681F4B1A6001E0E268DA6093
:105950000025E5601C4B01221A700A2323751B4B9E
:105960001A68E2601C6002F0E5FAA5E52046FFF740
:10597000D3F8124B1B7813F0100F31D0226D104B5F
:105980001B689A4201D0002596E5E36E0BB1002515
:1059900092E5054A137843F01003137000258BE558
:1059A000002589E510CA002018CA0020D8BE0008CA
:1059B00098C10008FCB100081CCA0020FCC90020E6
:1059C000F8C9002044CA002048CA00205CCA002050
:1059D000002571E500256FE500256DE500256BE5E7
:1059E000002569E5F0B585B0054650B16A68724B8F
:1059F0001A606B89132B0BD8284601F061FF05B0A4
:105A0000F0BD6E4B83226E496E4804F057F9EDE706
:105A10006D4B1968586903F0CDFE0028ECD16A4B34
:105A20005B6903F0F003E02BE6D0634B1B689889B9
:105A3000FEF7CEFCC0F307318900C9B21329DBD9C8
:105A40008BB22A899342D7D8A3F1140292B25F484D
:105A500002805F4800240460688983422ED92B6845
:105A6000002B67D01421284601F0E4FE6C89594BC5
:105A70001C80564B1F883E1BB6B22146284601F0BB
:105A8000D9FE28684389B342B6D34268504B1A60A6
:105A9000314601F0CFFE2B89E41B1C442C816B891D
:105AA000002B4ED12A892B681B899A420BD0434B7D
:105AB000E0224949434804F001F904E0454B1A80CB
:105AC000284601F0B7FE3C4C26683088FEF780FC83
:105AD000308026687088FEF77BFC708026687068CE
